:100000000C9446000C945D000C945D000C945D0013
:100010000C945D000C945D000C945D000C945D00EC
:100020000C945D000C945D000C945D000C945D00DC
:100030000C945D000C945D000C945D000C945D00CC
:100040000C945D000C945D000C945D000C945D00BC
:100050000C945D000C945D000C945D000C945D00AC
:100060000C945D000C945D000C945D000C945D009C
:100070000C945D000C945D000C945D000C945D008C
:100080000C945D000C945D000C945D0011241FBE67
:10009000CFEFD0E4DEBFCDBF11E0A0E0B1E0E4EFF0
:1000A000F3E000E00BBF02C007900D92AE30B10745
:1000B000D9F70E9499000C94F8010C940000CF939A
:1000C000DF9300D01F92CDB7DEB789837B836A832D
:1000D00089818A3031F48A819B81BC018DE00E9444
:1000E0005F0080EC90E0FC018081882F90E08072BE
:1000F0009927892BB1F386EC90E02981FC012083BC
:1001000080E090E00F900F900F90DF91CF910895D5
:10011000CF93DF93CDB7DEB78AE790E02AE730E0F0
:10012000F9012081206EFC0120830000DF91CF9136
:100130000895CF93DF9300D000D01F92CDB7DEB7E4
:1001400081E290E0FC01108282E290E02FEFFC015E
:10015000208384E290E02FEFFC01208385E290E091
:10016000FC0110828AE290E02FEFFC0120838BE2F9
:1001700090E0FC0110820E94880087EC91E09B8354
:100180008A8388E790E0FC01808191819D838C8344
:1001900019828A819B819C013695279536952795F2
:1001A000369527958C819D818217930718F481E0FD
:1001B000898314C18A819B819C0136952795369548
:1001C0002795369527958C819D818217930798F006
:1001D0008A819B8196958795969587959695879523
:1001E0009C01220F331F8C819D818217930718F485
:1001F00083E08983F3C08A819B8196958795969544
:100200008795969587959C01220F331F8C819D8140
:1002100082179307B0F08A819B819C0136952795C0
:100220003695279536952795C901880F991F280F70
:10023000391F8C819D818217930718F487E0898389
:10024000CDC08A819B819C0136952795369527954F
:1002500036952795C901880F991F280F391F8C8162
:100260009D8182179307A8F08A819B819695879537
:1002700096958795969587959C01220F331F220F9F
:10028000331F8C819D818217930718F48FE0898337
:10029000A5C08A819B819695879596958795969519
:1002A00087959C01220F331F220F331F8C819D8164
:1002B00082179307C0F08A819B819C013695279510
:1002C0003695279536952795C901880F991F880F70
:1002D000991F280F391F8C819D818217930718F46D
:1002E0008FE189837BC08A819B819C01369527950C
:1002F0003695279536952795C901880F991F880F40
:10030000991F280F391F8C819D8182179307C8F090
:100310008A819B819C013695279536952795369540
:100320002795C901880F991F820F931F880F991F66
:100330009C018C819D818217930718F48FE3898338
:100340004DC08A819B819C013695279536952795CE
:1003500036952795C901880F991F820F931F880F23
:10036000991F9C018C819D8182179307E0F08A81FF
:100370009B819C013695279536952795369527952F
:10038000C901880F991F880F991F880F991FAC0109
:10039000421B530B9A018C819D818217930718F49D
:1003A0008FE789831BC08A819B819C0136952795A5
:1003B0003695279536952795C901880F991F880F7F
:1003C000991F880F991FFC01E21BF30B9F018C8181
:1003D0009D818217930710F08FEF898385E290E06B
:1003E0002981FC0120838BE290E0FC011082C9CEC0
:0403F000F894FFCFAF
:0E03F40000000002000000005F00000000009A
:00000001FF
